:020000040800F2
:10000000280500203D1F0008911F0008951F0008CB
:10001000991F00089D1F0008A11F00080000000094
:10002000000000000000000000000000A51F000804
:10003000A91F000800000000AD1F00085D1F000898
:10004000B11F0008B51F0008B91F0008BD1F000838
:10005000C11F0008C51F0008C91F0008CD1F0008E8
:10006000D11F0008D51F0008D91F0008DD1F000898
:10007000E11F0008E51F0008E91F0008ED1F000848
:10008000F11F0008F51F0008F91F0008FD1F0008F8
:100090000120000805200008092000080D200008A4
:1000A0001120000815200008192000081D20000854
:1000B0002120000825200008292000082D20000804
:1000C0003120000835200008392000083D200008B4
:1000D0004120000845200008492000084D20000864
:1000E0005120000855200008592000085D20000814
:1000F0006120000865200008692000086D200008C4
:100100007120000875200008792000087D20000873
:100110008120000885200008611F00088920000850
:100120008D200008912000089520000899200008E3
:100130009D200008A1200008A5200008A920000893
:10014000AD200008B1200008B5200008B920000843
:10015000BD200008C1200008C5200008C9200008F3
:10016000CD200008D1200008D5200008D9200008A3
:10017000DD200008E1200008E52000080000000064
:10018000E9200008ED20000880B500F027FA00F013
:1001900045FA00F057FA00F063FA00F076FA00F042
:1001A00091FA00F095FA00F069FC00F0DAFCBDE885
:1001B000014000F0F5BC704780B5FFF7E5FF00F0A7
:1001C000FDFC00F00BF800F0AEF800F094F800F041
:1001D0006DF800F056F800F0FEF9FEE780B592B039
:1001E0003022002106A800F003FD1422002101A8FE
:1001F00000F0FEFC00200090D648016841F08051DC
:100200000160006800F0805000900098002000908D
:10021000D148016841F480410160006800F48040E9
:1002200000900098012006904FF480300790022043
:100230000C904FF480000D9004200E90A8200F9099
:10024000022010900720119006A800F0DBFC002887
:1002500001D000F09BF90F200190022002900020B5
:1002600003904FF4A05004904FF480500590052166
:1002700001A800F061FE002801D000F087F913B05A
:1002800000BD80B5B548B64901601021416000212C
:100290008160C160016141618161818300F02EFF55
:1002A000002802D0BDE8014070E101BD1CB5082264
:1002B0000021684600F09CFCAA4CAB48206000205E
:1002C0006060A0604AF20F40E0600020A06120461C
:1002D00000F0AEFF002801D000F058F91020009087
:1002E000002001906946204601F020F9002801D045
:1002F00000F04CF913BD80B59C489D4901604FF456
:100300009641416000218160C16001610C21416121
:1003100000218161C16101F051F9002802D0BDE8DE
:10032000014033E101BD2DE9F84386B014220021DC
:10033000684600F05DFC002005908E48016841F0A1
:1003400010010160016801F010010591059900217B
:100350000591016841F004010160016801F00401A8
:100360000591059900210591016841F08001016026
:10037000016801F08001059105990021059101684E
:1003800041F001010160016801F001010591059949
:1003900000210591016841F002010160016801F04E
:1003A00002010591059900210591016841F00801BC
:1003B0000160006800F00800059005986E4C00226E
:1003C0000821204601F06FFA6C4D012211462846A3
:1003D00001F069FA4FF21006694F002231463846A3
:1003E00001F061FA082000900120019000200290A5
:1003F00003906946204601F07DF9012000900190AC
:100400000020029003906946284601F073F9082005
:10041000009002200190002002900390052004909B
:100420006946284601F066F9012000904FF48810D3
:10043000019000200290DFF84C816946404601F0AF
:1004400059F91020009002200190002002900390A2
:10045000062004906946404601F04CF9E0200090E7
:10046000022001900020029003900520049069462C
:10047000404601F03FF904200090002001900290D6
:10048000DFF804916946484601F034F94FF4806082
:10049000009002200190002002900390052004901B
:1004A0006946484601F026F9009601200190002097
:1004B000029003906946384601F01CF94FF4A450AD
:1004C00000900220019000200290039006200490EA
:1004D0006946284601F00EF94FF4007000900020A4
:1004E000019002906946404601F004F94FF4E05053
:1004F0000090022001900020029003900A200490B6
:100500006946404601F0F6F8202000900020019056
:1005100002906946384601F0EDF84FF410700090F3
:10052000122001900020029003900420049069465C
:10053000484601F0DFF8022000904FF4901001903F
:10054000002002906946204601F0D4F807B0BDE8CB
:10055000F08300004038024000700040A0000020FE
:1005600000640040100000200010004058000020EF
:1005700000440040303802400010024000080240B1
:10058000000C02400000024000040240704730B4FA
:10059000002513E050F8042BD30744BFA9F1010351
:1005A0009A18091F042942F8045BFAD213468C07F3
:1005B00044BF15809B1CC90748BF1D7050F8041B21
:1005C0000029E7D130BC70470649884202D106486D
:1005D000006800477047034800F04CBE03480249DA
:1005E000086070471000002014010020B7010008C7
:1005F000104800680068400900F0010070470D488D
:1006000000684068C0B270470A490968486070478E
:100610006FF02000074909680860704705486FF0CF
:100620004001026811606FF02001006801607047AE
:10063000000000005800002002464FF4004104482A
:1006400001F031B900224FF40041014801F02BB90B
:10065000000C024002464FF48051044801F023B9D7
:1006600000224FF48051014801F01DB9000C0240F6
:1006700010B5002404E00C4951F820008047641CA8
:100680002046C0B20928F6DB10BD0020074A064B01
:1006900002E043F82120401C0146C9B20929F8DBD9
:1006A0000348044908607047F0000020B7010008C3
:1006B00071060008140100200120FFF7BDBF0020D3
:1006C000FFF7BABF0020FFF7B7BF0020FFF7C2BF98
:1006D0000020FFF7BFBF30B40EE002684368024459
:1006E0000830DC0744BFA9F10104E31852F8045BA9
:1006F00043F8045B091FF9D150F8041B0029ECD121
:1007000030BC704780B500F0A3F8002817D0DFF8A0
:10071000A013887C00280AD10020024602E00B18B2
:100720001A75401C1028FADB1046C87401BD24203D
:10073000FFF76AFF0FF20900DFF87813486101BD87
:1007400080B500F085F800281AD00021DFF860237A
:1007500007E05018007D002802D0D07C401CD074E7
:10076000491C1029F5DBD07CFFF74EFFDFF848036A
:100770000021017041700FF20D00DFF8381348615D
:1007800001BD000070B500F063F8002837D0DFF835
:10079000205305F1130420780146112906DB0421BA
:1007A000A174DFF81813DFF80C235161002805D17C
:1007B0000320A074DFF80403BE494861BE4E05F172
:1007C00014003178405CFFF71FFF307805F1140109
:1007D000095C72788A187270242903D10FF2210102
:1007E000B44A51612178491E884205DB0FF241006D
:1007F000B0494861002030703078401C307070BDC6
:1008000080B500F025F8002811D00020FFF7FCFE8D
:10081000A848A9490A78A64BDB7C9A4205D3002256
:100820000A700FF20D01416101BDA549416101BD91
:1008300080B500F00DF8002809D09F484078FFF7F8
:10084000E3FE00209A4988749C489A49486101BD9A
:100850009C480178491C0170C9B2042901D20020CA
:100860007047002101700120704780B500F0F7F853
:1008700000280FD094488178242906D100214170A6
:100880000FF215008B49486001BD8948012180F8AD
:100890002510417001BD000070B500F0C9F80028B6
:1008A0002CD0834C04F12405824E00F0CEF80128B0
:1008B00004D10120687060708448706000F0CFF847
:1008C00000281BD08049002048708878002805D176
:1008D00003226A70012262707C4A72600246112A09
:1008E00005DB04226A7001226270784A7260287007
:1008F00000200870C8700FF20900706070BD000021
:1009000038B500F095F800282FD000F09EF80128A7
:1009100009D16748012100F12402517041706B48F0
:100920006449486031BD00F09AF800281DD066493E
:10093000002048708B780A785D48841C1546635502
:10094000CC781C19CC70521C0A70242B04D10FF2E5
:100950001D005849486031BD90F82400D2B282424F
:1009600003D10FF271005349486031BD10B500F05A
:100970005FF800282CD000F068F8012809D14C4815
:10098000012100F1240251704170504849494860EA
:1009900010BD00F064F800281AD04B4A00205070B7
:1009A000434901F12403434C9078002806D00520E8
:1009B0005870012048704548606010BD1078197863
:1009C000884202D24248606010BD0FF209006060A8
:1009D00010BD000010B500F02BF8002827D000F063
:1009E00034F8012808D13248012180F825104170DF
:1009F00036483049486010BD00F031F8002816D064
:100A0000314B002058702B49304A29489C78DB78BC
:100A10009C4206D1002380F82530012343704A60B0
:100A200010BD062380F82530012343704A6010BDB5
:100A300024484178491C4170C9B2002901D10020E5
:100A4000704700214170012070471F484178491CC0
:100A50004170C9B208298041C043C00F704780B5BA
:100A6000FFF7C6FD002801D1002002BDFFF7C7FD3A
:100A700015498870FFF7CCFD012002BD0C4800210C
:100A80000180104900220A7082744A70114680F871
:100A900025100849094A4A610C4A4A6000210A4661
:100AA00002E043181A75491C1029FADB7047000050
:100AB000C8000020F00000202201002005070008E7
:100AC00085070008200100201C0100206B08000899
:100AD0000109000828480168491C0160B1F5167F2A
:100AE00000D2704780B500210160FFF7E5FD0FF2ED
:100AF00009002249086001BD1F480168491C0160C6
:100B0000B1F5C87F00D2704780B500210160FFF7C2
:100B1000D6FD0FF209001949086001BD16480168A9
:100B2000491C0160B1F57A7F00D2704780B5002181
:100B30000160FFF7C1FD0FF209001049086001BD17
:100B40000D480168491C0160B1F5FA6F00D2704789
:100B500080B500210160FFF7B2FD09480749086030
:100B600001BD80B5002004490860FFF7A8FD0448D6
:100B70000249086001BD000018010020F0000020BB
:100B8000D50A00080A48012181744D2101756521AB
:100B90004175742181756121C1756C2101767047A1
:100BA00080B5FFF792FD03480349886101BD00004D
:100BB000C8000020850B0008F000002080B50B481D
:100BC000016841F400710160016841F480610160D5
:100BD000016841F480710160032000F0DAFE00201A
:100BE00000F0F6FE00F018FF002002BD003C0240BD
:100BF00010B5044610460A460146204600F0B8FFEC
:100C0000204610BD2DE9FC41040000F08781DFF88B
:100C100018532078C00713D5A86800F00C000428EA
:100C200007D0A86800F00C0008283DD16868400291
:100C30003AD52868800303D56068002800F06E81EB
:100C40002078800719D5A86810F00C0F07D0A86885
:100C500000F00C0008285ED1686840025BD4286868
:100C6000800703D5E068012840F05881286820F00B
:100C7000F800216940EAC10028602078000740F1AF
:100C80008080AA49606900286DD00120086000F0CA
:100C9000A3FF0646686F800773D400F09DFF801B9A
:100CA0000228F7D903203CE16068B0F5803F04D109
:100CB000286840F48030286012E0B0F5A02F286842
:100CC00007D140F480202860286840F480302860F4
:100CD00006E020F480302860286820F48020286016
:100CE000606800280BD000F077FF06462868800374
:100CF000A6D400F071FF801B6528F7D3D2E700F07F
:100D00006BFF0646286880039AD500F065FF801BBC
:100D10006528F7D3C6E78649E068002815D001208A
:100D2000086000F059FF06462868800705D400F0E7
:100D300053FF801B0228F7D9B4E7286820F0F80099
:100D4000216940EAC100286097E70020086000F0B0
:100D500043FF0646286880078FD500F03DFF801BC3
:100D60000228F7D99EE70020086000F035FF06460C
:100D7000686F800705D500F02FFF801B0228F7D988
:100D800090E72078400763D50026286CC0000BD47C
:100D900030460090286C40F080502864286C00F0A9
:100DA0008050009000980126624F3868C00510D42A
:100DB000386840F48070386000F00EFF8046386874
:100DC000C00506D400F008FFA0EB08000228F6D901
:100DD00068E7A068012804D1286F40F00100286767
:100DE00011E00528286F07D140F004002867286F1C
:100DF00040F00100286706E0400840002867286F9F
:100E000020F004002867A06800280DD000F0E4FE60
:100E10000746286F800715D400F0DEFEC01B41F2A4
:100E200089318842F5D33DE700F0D6FE0746286FAA
:100E3000800707D500F0D0FEC01B41F289318842FF
:100E4000F5D32FE7012E03D1286C20F080502864C1
:100E5000A069002864D0A96801F00C0108293BD0E2
:100E6000334E02282AD10020306600F0B5FE074636
:100E70002868800105D500F0AFFEC01B0228F7D915
:100E800010E7E069216A0843616A40EA8110A16ABB
:100E90004908491E40EA0140E16A40EA0160686091
:100EA0000120306600F098FE04462868800137D49F
:100EB00000F092FE001B0228F7D9F3E6002030660E
:100EC00000F08AFE04462868800129D500F084FEDF
:100ED000001B0228F7D9E5E601281FD0686800F456
:100EE0008001E269914219D100F03F01226A9142EA
:100EF00014D147F6C0710140626AB1EB821F0DD177
:100F000000F44031A26A5208521EB1EB024F05D1E3
:100F100000F07060E16AB0EB016F01D0012000E0E9
:100F20000020BDE8F68100BF00380240800E474235
:100F300000004742007000402DE9F04104460F4692
:100F4000002C5BD04D4E306800F00700B84205D24F
:100F50003770306800F00700B8424FD12068484D24
:100F6000810712D5400703D5A86840F4E050A86077
:100F70002078000703D5A86840F46040A860A968FD
:100F800021F0F001A0680143A9602078C0072AD5AC
:100F90006068012803D1296889030BD42EE0022858
:100FA00001D0032803D12968890103D426E02968E8
:100FB000890723D5A968890850EA8100A86000F054
:100FC0000BFE8046A86800F00C006168B0EB810F52
:100FD00009D000F001FEA0EB080041F289318842FF
:100FE000F0D303202EE0306800F00700874207D2DC
:100FF0003770306800F00700B84201D0012021E0CE
:101000002078400705D5A96821F4E051E068014344
:10101000A9602078000706D5A86820F460402169FF
:1010200040EAC100A86000F037F81649AA68C2F388
:101030000312895CC840144908601448006800F035
:10104000C7FC0020BDE8F0810F480068704780B5FC
:10105000FFF7FAFF0F490E4A1268C2F38222895C39
:10106000C84002BD80B5FFF7EFFF0A49084A126881
:10107000C2F34232895CC84002BD0000003C02401D
:1010800000380240741E00080C00002008000020F8
:1010900008380240881F000810B5154C606800F041
:1010A0000C00042802D0082802D01EE0114810BD10
:1010B000226802F03F020023206840022068C0F34B
:1010C000881005D50B49A1FB000100F08BFD04E061
:1010D0000949A1FB000100F085FD2168C1F3014130
:1010E000491C4900B0FBF1F010BD034810BD00BF22
:1010F0000438024000127A000024F40038B50400DD
:1011000001D1012032BD94F82000002802D12046F0
:1011100000F09EFC2068016841F00101016000F0D0
:101120005BFD054620684168C9070DD400F054FDF9
:10113000401B0B28F6D3606A40F400306062052043
:1011400084F82000012032BD016821F00201016015
:1011500000F042FD05462068416889070DD500F082
:101160003BFD401B0B28F6D3606A40F40030606200
:10117000052084F82000012032BD217E012901686C
:1011800003D141F08001016002E021F080010160A3
:101190002068617E0129016803D141F040010160AE
:1011A00002E021F0400101602068A17E0129016870
:1011B00003D141F02001016002E021F02001016033
:1011C0002068E17E0129016803D121F0100101604E
:1011D00002E041F0100101602068217F01290168CF
:1011E00003D141F00801016002E021F00801016033
:1011F0002068617F0129016803D141F00401016089
:1012000002E021F004010160A168E0680143206967
:101210000143606901436068401E01432068C16169
:1012200000206062012084F82000002032BD000010
:1012300038B5040001D1012032BD04F13C056878C5
:10124000002804D100202870204600F034FC022041
:101250006870211D206800F0F6F80120A872A870BF
:10126000E87028716871A871E871287268726870F6
:10127000002032BD90F83D10012901D001207047B7
:10128000022180F83D100168CA6842F00102CA607C
:101290000068DFF85C1088421AD0B0F1804F17D098
:1012A000DFF85010884213D0DFF84C1088420FD07E
:1012B000DFF8481088420BD0DFF84410884207D08E
:1012C000DFF84010884203D0DFF83C10884209D193
:1012D000816801F00701062908D0016841F0010189
:1012E000016003E0016841F00101016000207047E6
:1012F000000001400004004000080040000C0040D5
:1013000000040140004001400018004070B5044650
:101310002068C5680669B10716D5A90714D56FF00E
:1013200002010161012020772068806910F0030F1D
:10133000204602D000F06EFD04E000F06CFD204677
:1013400000F06AFD00202077700717D5680715D5D3
:101350006FF004002168086102202077206880690E
:1013600010F4407F204602D000F054FD04E000F06D
:1013700052FD204600F050FD00202077300717D5A1
:10138000280715D56FF00800216808610420207730
:101390002068C06910F0030F204602D000F03AFD2B
:1013A00004E000F038FD204600F036FD00202077F4
:1013B000F00617D5E80615D56FF010002168086112
:1013C000082020772068C06910F4407F204602D0B2
:1013D00000F020FD04E000F01EFD204600F01CFDA2
:1013E0000020207706F0010005F00101084206D038
:1013F0006FF00100216808612046FFF7E5F830062C
:1014000008D5280606D56FF08000216808612046BF
:1014100000F003FD700608D5680606D56FF04000A1
:1014200021680861204600F0F9FCB0060AD5A8063C
:1014300008D56FF02000216808612046BDE87040A3
:1014400000F0EDBC70BD10B40468DFF8B430984211
:1014500012D0B0F1804F0FD0DFF8A82090420BD00F
:10146000DFF8A420904207D0DFF8A020904203D0FC
:10147000DFF89C20904203D124F070044A681443A2
:10148000984220D0B0F1804F1DD01E4A90421AD011
:101490001D4A904217D01D4A904214D01C4A9042D7
:1014A00011D01C4A90420ED01B4A90420BD01B4ACE
:1014B000904208D01A4A904205D01A4A904202D06F
:1014C000194A904203D124F44074CA68144324F0AA
:1014D00080044A6914438A68C2620A688262984238
:1014E00002D00B4A904201D109690163016841F0C1
:1014F0000401016001214161046010BC70470000DB
:10150000000001400004004000080040000C0040C2
:1015100000040140004001400044014000480140F7
:1015200000180040001C00400020004070B400F192
:101530003C031A78012A01D102202DE001221A7001
:1015400002225A7005686E68AC6826F070060A6858
:1015500016436E6002681248824214D0B2F1804F86
:1015600011D0104882420ED00F4882420BD00F4853
:10157000824208D00E48824205D00E48824202D0F4
:101580000D48824204D124F08004486804439460EA
:10159000012058700020187070BC704700000000D7
:1015A000000001400004004000080040000C004022
:1015B00000040140004001400018004038B504001C
:1015C00001D1012032BD04F140056878002804D122
:1015D00000202870204600F08AFA242068702068D5
:1015E000C16821F40051C160204600F017F820685E
:1015F000016921F4904101612068416921F02A01CB
:1016000041612068C16841F40051C16000206860F8
:1016100020206870A8700020606332BD70B5044659
:1016200021680A6922F44052E06802430A61216895
:10163000CA682D480240A0680243206902436069DD
:101640000243E0690243CA6021684A6922F4407299
:10165000A06902434A6120682449884202D0244993
:10166000884202D1FFF7FEFC01E0FFF7F0FC626860
:1016700000231921A1FB000125686426E469B4F563
:10168000004F18D143EAD273520000F0ABFA314652
:10169000B0FBF1F106FB1106F60032366420B6FB12
:1016A000F0F0420002F4F87202EB011200F00700C1
:1016B0008018A86070BD43EA9273920000F092FA1D
:1016C0003146B0FBF1F106FB1106360132366420DB
:1016D000B6FBF0F000F0F00202EB011200F00F0098
:1016E0008018A86070BD0000F369FFFF0010014082
:1016F00000140140F8B500232DE04FF0080C05E080
:10170000DFF8B0C16045F8D14FF0070C0CFA06FCC9
:101710004CEA070C45F824C0674CA668D5432E4018
:101720004F68FF0200D51643A660E6682E404F685A
:10173000BF0200D51643E66066682E404F68BF03BF
:1017400000D51643666026682E404D68ED0300D52F
:10175000164326605B1C0F2B00F2A48001279F40DC
:101760000A683A40BA42F5D15C000325A540ED4332
:101770004E6806F0030CBCF1010F03D006F003061F
:10178000022E10D186682E40D1F80CC00CFA04FC51
:101790004CEA060686604668BE434F68C7F30017EA
:1017A0009F403E4346600E7906F00306032E05D0A7
:1017B000C6682E408F68A7403E43C6600E7906F08B
:1017C0000306022E15D11E46F60800EB86073E6A78
:1017D0004FEA830C0CF01C0C4FF00F0E0EFA0CFEAF
:1017E00026EA0E06D1F810E00EFA0CFC4CEA0606CA
:1017F0003E6206682E400D7905F0030505FA04F4F3
:10180000264306604C6814F4403FA3D000240094A3
:101810002A4C256845F480452560246804F48044FA
:101820000094009C1C46A408254D55F824709E0089
:1018300006F00C064FF00F0C0CFA06FC27EA0C071A
:10184000DFF880C0604502D14FF0000C5EE7DFF8A2
:1018500078C0604502D14FF0010C57E7DFF86CC04B
:10186000604502D14FF0020C50E7DFF864C06045DC
:1018700002D14FF0030C49E7DFF858C0604502D1B0
:101880004FF0040C42E7DFF850C0604502D14FF042
:10189000050C3BE7DFF844C060457FF431AF4FF003
:1018A000060C33E7F1BD002A01D0816170470904BD
:1018B00081617047001C0240003C014044380240F6
:1018C00008380140000002400004024000080240C5
:1018D000000C0240001002400014024000180240B8
:1018E000354A13684FF6FF010B40000200F4E06038
:1018F000184332490843106070472F480068C0F30E
:1019000002207047010007D4012200F01F018A4025
:101910002B49400941F8202070470901020002D4F8
:10192000284881547047284802F00F02104400F8FC
:10193000041C704710B400F00700C0F10703052B2A
:1019400000D30423041D072C01D2002000E0C01E98
:10195000012404FA03F35B1E1940814004FA00F0ED
:10196000401E1040084310BC704710B5401EB0F137
:10197000807F01D3012010BD144C60600F214FF017
:10198000FF30FFF7CAFF0020A06007202060002082
:1019900010BDA5E770B504460D461646FFF7ADFF2E
:1019A00032462946FFF7C6FF01462046BDE8704093
:1019B000B3E7A7E7D9E700000CED00E00000FA0567
:1019C00000E100E000E400E018ED00E010E000E0DD
:1019D00038B504460E4D4FF47A702978B0FBF1F01B
:1019E0000C490968B1FBF0F0FFF7E4FF002801D0D3
:1019F000012032BD102C08D2002221464FF0FF30CA
:101A0000FFF7C8FFAC60002032BD012032BD00BF2F
:101A1000000000200C00002082B0002000904D4803
:101A2000416841F480414160416801F48041009186
:101A3000009900210091016841F080510160006827
:101A400000F0805000900098072002B0FFF7A1BF7F
:101A500010B586B004461422002101A8FFF7C8F88B
:101A600020683D49884224D1002000903B4801690C
:101A700041F000710161016901F00071009100996C
:101A800000210091016841F008010160006800F048
:101A9000080000900098032001900220029000208E
:101AA0000390032004900920059001A92C48FFF71A
:101AB00021FE06B010BD00682A49884200D0704758
:101AC00080B5002000902348016841F010010160BA
:101AD000006800F0100000900098002211463620A7
:101AE000FFF758FF3620BDE80240FFF762BF10B590
:101AF00086B004461422002101A8FFF779F8206877
:101B00001949884224D1002000901448016941F409
:101B100000310161016901F4003100910099002157
:101B20000091016841F001010160006800F00100CE
:101B3000009000980C200190022002900020039059
:101B4000032004900720059001A90848FFF7D2FD63
:101B500006B010BD403802400064004030380240FA
:101B6000000C024000100040004400400000024011
:101B700062F30F2262F31F42401810F0030308D0F3
:101B8000C91A1FD3DB0748BF00F8012D28BF20F872
:101B9000022D130030B414461546103928BF20E931
:101BA0003C00FAD8490728BF20E90C0048BF40F89C
:101BB000042D890028BF20F8022D48BF00F8012D10
:101BC00030BC7047C91818BF00F8012DCB0728BFDB
:101BD00000F8012D7047000001484068704700BFC1
:101BE00000000020BBBBE1B1B2F5803F80F07E80F9
:101BF000022A1ED98C46B1FBF2F102FB11C31B0471
:101C000043EA1043B3FBF2FC02FB1C3380B240EA10
:101C10000343B3FBF2F002FB103240EA0C40002316
:101C20007047022A05D98446B0FBF2F002FB10C2CD
:101C300070474AB105D100F0010249085FEA30005F
:101C4000704700220023704700F0EAB80B00020042
:101C5000002100207047904271EB030CF6D3B3F5DE
:101C6000803F2FD2F0B5B3FA83F7B1FA81F4A7F130
:101C70000F0E3D1B5340CEF1200602FA0EF2F34147
:101C80005340B5F10F0746D80F3C2C444140C4F1F6
:101C90002006A040F1414140B1FBF3F603FB1611D1
:101CA000A2FB0645001BA94102D2761E80185941AD
:101CB00080EA010221FA0EF362FA0EF200215A4084
:101CC0003046F0BD30B4B1FBF3FC03FB1C11A2FBAA
:101CD0000C45001BA94103D2ACF1010C80185941FD
:101CE00030BC02460B46604600217047B2F1807F4F
:101CF00065D3F0B5B2FA82F7B1FA81F4C7F10F06F5
:101D00003D1B22FA06F307F1110EF24120355A402D
:101D1000B5F10F07B8D94140C4F12006A040F14108
:101D20004140B1FBF3FC03FB1C11A2FB0C45001B63
:101D3000A94103D2BCF1010C801859410F2F12D3D5
:101D40000F3FC90341EA5041B1FBF3F603FB161103
:101D5000A2FB0645D4EBC030A94102D2761E801802
:101D6000594146EACC3C07B34140C7F12006B84090
:101D7000F1414140B1FBF3F603FB1611A2FB06450E
:101D8000001BA94102D2761E8018594180EA010247
:101D900021FA0EF3C7F1200462FA0EF20CFA07F0F2
:101DA0005A402CFA04F13043F0BD80EA010221FAD6
:101DB0000EF3002162FA0EF260465A40F0BD8C46E6
:101DC000B1FBF2F102FB11C31B0243EA1063B3FB48
:101DD000F2FC02FB1C331B024CEA002043EA1063B6
:101DE000B3FBF2FC02FB1C331B024CEA002043EA6B
:101DF0001063B3FBF2FC02FB1C331B024CEA002015
:101E000043EA1063B3FBF2FC02FB1C324CEA0020F5
:101E1000002370477047704770477047704770479E
:101E2000704700000E48016841F4700101600D49DF
:101E3000086840F001000860002088600A680A48CD
:101E400002400A6009484860086820F48020086061
:101E50000020C8604FF0006005490860704700002E
:101E600088ED00E000380240FFFFF6FE103000244D
:101E700008ED00E000000000000000000102030483
:101E80000607080910B5074979441831064C7C4407
:101E9000163404E00A68081D114488470146A1422F
:101EA000F8D110BD2C0000004C0000004EF6885107
:101EB000CEF20001086840F470000860BFF34F8F55
:101EC000BFF36F8F4FF00070E1EE100A7047000013
:101ED000BFE6FFFF1401000010000020000000001A
:101EE000F7E7FFFF10000000840000000000002062
:101EF0000000000000F00DF8002801D0FFF7C2FF3D
:101F0000AFF300800020AFF30080FEF755F900F03A
:101F100002F80120704700F001B80000074638467B
:101F200000F002F8FBE7000080B5AFF30080024A42
:101F300011001820ABBEFBE72600020001488047D5
:101F400001480047251E00087D1F0008024841681F
:101F5000027889184160704700000020FFF7F6BF43
:101F60000148FFF7D3B90000100000200100000075
:101F700000000000100000000024F400AFF3008017
:101F8000FFF794FFFFF7B6FF000000000102030413
:101F9000FFF7FEBFFFF7FEBFFFF7FEBFFFF7FEBF75
:101FA000FFF7FEBFFFF7FEBFFFF7FEBFFFF7FEBF65
:101FB000FFF7FEBFFFF7FEBFFFF7FEBFFFF7FEBF55
:101FC000FFF7FEBFFFF7FEBFFFF7FEBFFFF7FEBF45
:101FD000FFF7FEBFFFF7FEBFFFF7FEBFFFF7FEBF35
:101FE000FFF7FEBFFFF7FEBFFFF7FEBFFFF7FEBF25
:101FF000FFF7FEBFFFF7FEBFFFF7FEBFFFF7FEBF15
:10200000FFF7FEBFFFF7FEBFFFF7FEBFFFF7FEBF04
:10201000FFF7FEBFFFF7FEBFFFF7FEBFFFF7FEBFF4
:10202000FFF7FEBFFFF7FEBFFFF7FEBFFFF7FEBFE4
:10203000FFF7FEBFFFF7FEBFFFF7FEBFFFF7FEBFD4
:10204000FFF7FEBFFFF7FEBFFFF7FEBFFFF7FEBFC4
:10205000FFF7FEBFFFF7FEBFFFF7FEBFFFF7FEBFB4
:10206000FFF7FEBFFFF7FEBFFFF7FEBFFFF7FEBFA4
:10207000FFF7FEBFFFF7FEBFFFF7FEBFFFF7FEBF94
:10208000FFF7FEBFFFF7FEBFFFF7FEBFFFF7FEBF84
:10209000FFF7FEBFFFF7FEBFFFF7FEBFFFF7FEBF74
:1020A000FFF7FEBFFFF7FEBFFFF7FEBFFFF7FEBF64
:1020B000FFF7FEBFFFF7FEBFFFF7FEBFFFF7FEBF54
:1020C000FFF7FEBFFFF7FEBFFFF7FEBFFFF7FEBF44
:1020D000FFF7FEBFFFF7FEBFFFF7FEBFFFF7FEBF34
:1020E000FFF7FEBFFFF7FEBFFFF7FEBFFFF7FEBF24
:0400000508001F7D53
:00000001FF
