:020000040800F2
:10000000A005002069260008BD260008C1260008BA
:10001000C5260008C9260008CD26000800000000FB
:10002000000000000000000000000000D1260008D1
:10003000D526000800000000D926000889260008FF
:10004000DD260008E1260008E5260008E92600086C
:10005000ED260008F1260008F5260008F92600081C
:10006000FD260008012700080527000809270008C9
:100070000D27000811270008152700081927000878
:100080001D27000821270008252700082927000828
:100090002D270008312700083527000839270008D8
:1000A0003D27000841270008452700084927000888
:1000B0004D27000851270008552700085927000838
:1000C0005D270008612700086527000869270008E8
:1000D0006D27000871270008752700087927000898
:1000E0007D27000881270008852700088927000848
:1000F0008D270008912700089527000899270008F8
:100100009D270008A1270008A5270008A9270008A7
:10011000AD270008B12700088D260008B527000884
:10012000B9270008BD270008C1270008C527000817
:10013000C9270008CD270008D1270008D5270008C7
:10014000D9270008DD270008E1270008E527000877
:10015000E9270008ED270008F1270008F527000827
:10016000F9270008FD2700080128000805280008D5
:10017000092800080D2800081128000800000000C8
:10018000152800081928000838B5040001D10120FD
:1001900032BD94F82000002802D1204600F076FA03
:1001A0002068016841F00101016000F0FFFA054696
:1001B00020684168C9070DD400F0F8FA401B0B28ED
:1001C000F6D3606A40F400306062052084F82000B5
:1001D000012032BD016821F00201016000F0E6FA61
:1001E00005462068416889070DD500F0DFFA401BFD
:1001F0000B28F6D3606A40F400306062052084F872
:100200002000012032BD217E0129016803D141F087
:100210008001016002E021F0800101602068617EC0
:100220000129016803D141F04001016002E021F0A1
:10023000400101602068A17E0129016803D141F0DD
:100240002001016002E021F0200101602068E17ED0
:100250000129016803D121F01001016002E041F0A1
:10026000100101602068217F0129016803D141F05C
:100270000801016002E021F0080101602068617F4F
:100280000129016803D141F00401016002E021F07D
:1002900004010160A168E0680143206901436069CD
:1002A00001436068401E01432068C1610020606214
:1002B000012084F82000002032BDF0B490F8202006
:1002C000012A01D0022A69D14E4A106840F001008B
:1002D0001060106820F47C50106010684B6A40EA8F
:1002E0000320106001200B7D03F01F0300FA03F3CD
:1002F000DC43D0692040D061C869002816D1D0689D
:100300002040D060404800F510754E69CF68D1F8A4
:1003100004C0CCEA074745F8367000F511704D6906
:100320008E680F68C7EA064640F83560C86901283C
:1003300016D1D0681843D060334800F510754E6967
:100340000F68D1F804C0CCEA074745F8367000F5CD
:1003500011704D698E68CF68C7EA064640F835606F
:1003600088690028506802D12040506001E018439D
:10037000506008690028506902D10440546101E0CE
:1003800018435061086A012802D1D0690343D36140
:100390001068400840001060002004E0416A41F409
:1003A000802141620120F0BC704738B5044694F8C2
:1003B000200001281FD1022084F820002068016855
:1003C00049084900016000F0F1F9054620684068DD
:1003D000C0070DD500F0EAF9401B0B28F6D3606A80
:1003E00040F400306062052084F82000012032BD16
:1003F0000020606232BD606A40F40020606201202B
:1004000032BD00000066004000640040F0B490F887
:1004100020400568AD68012C01D0022C53D115F0A5
:10042000E05F4AD0C5F301640125A5401D60036863
:1004300003F5C0752401CE688B68002B04D10B68CE
:1004400046EA43562E5104E04F6843EAC7031E4371
:100450002E510B69056805F5C2752B51097D0129DF
:1004600006D1016801F5C2710B5943F480730B5139
:10047000D17993791B0443EA0163517943EA01235B
:1004800011790B4301682144C1F88C31D1789378FC
:100490001B0443EA0163517843EA012311780B43BB
:1004A00001682144C1F88831006800F5C070015925
:1004B00041F00101015100200AE0416A41F40011BC
:1004C0004162012004E0416A41F48021416201203F
:1004D000F0BC70470146002091F82020012A01D08D
:1004E000022A0CD109688A68520100D501208A6865
:1004F000120100D5401C8968C90000D5401C704716
:1005000070B490F82040012C02D0022C40F088807A
:100510000468002909D1E56815F0030F0FD1416A7D
:1005200041F40011416201207FE0256915F0030FBD
:1005300005D1416A41F400114162012075E00D01CD
:1005400004F5D874645904F004049460066806F550
:10055000D876002C745902D1640D146001E0E408CF
:100560005460046804F5D874645904F00204D4603B
:10057000046804F5DA74665906F00F06082E02D3F3
:100580000824146103E0645904F00F041461046842
:1005900004F5DA746459C4F307249461046804F51B
:1005A000DA746459240C546102682A44D2F8B821E0
:1005B0001A7002682A44D2F8B821120A5A700268E6
:1005C0002A44D2F8B821120C9A7002682A44D2F850
:1005D000B821120EDA7002682A44D2F8BC211A71CE
:1005E00002682A44D2F8BC21120A5A7102682A44CD
:1005F000D2F8BC21120C9A7102682A44D2F8BC21AC
:10060000120EDA710068002904D1C16841F020019E
:10061000C16003E0016941F020010161002004E0B4
:10062000416A41F480214162012070BC704702465A
:10063000002092F82030012B01D0022B09D1106844
:10064000002903D1C06800F003007047006900F082
:100650000300704782B0002000904D48416841F48B
:1006600080414160416801F480410091009900217E
:100670000091016841F080510160006800F08050F5
:1006800000900098072002B000F0EFB810B586B0D7
:1006900004461422002101A800F006F920683D4913
:1006A000884224D1002000903B48016941F000714C
:1006B0000161016901F00071009100990021009130
:1006C000016841F008010160006800F00800009036
:1006D0000098032001900220029000200390032044
:1006E00004900920059001A92C4800F0E7F806B015
:1006F00010BD00682A49884200D0704780B50020AC
:1007000000902348016841F010010160006800F08A
:1007100010000090009800221146362000F0A6F844
:100720003620BDE8024000F0B0B810B586B00446EF
:100730001422002101A800F0B7F820681949884266
:1007400024D1002000901448016941F40031016176
:10075000016901F4003100910099002100910168C4
:1007600041F001010160006800F001000090009874
:100770000C2001900220029000200390032004909E
:100780000720059001A9084800F098F806B010BDB0
:10079000403802400064004030380240000C024003
:1007A0000010004000440040000002400148406842
:1007B000704700BF00000020354A13684FF6FF0164
:1007C0000B40000200F4E060184332490843106017
:1007D00070472F480068C0F302207047010007D41B
:1007E000012200F01F018A402B49400941F82020D6
:1007F00070470901020002D42848815470472848F4
:1008000002F00F02104400F8041C704710B400F00E
:100810000700C0F10703052B00D30423041D072C98
:1008200001D2002000E0C01E012404FA03F35B1E85
:100830001940814004FA00F0401E1040084310BCEB
:10084000704710B5401EB0F1807F01D3012010BD6C
:10085000144C60600F214FF0FF30FFF7CAFF0020FB
:10086000A06007202060002010BDA5E770B50446F9
:100870000D461646FFF7ADFF32462946FFF7C6FF85
:1008800001462046BDE87040B3E7A7E7D9E700007E
:100890000CED00E00000FA0500E100E000E400E0FB
:1008A00018ED00E010E000E010B5044610460A46DE
:1008B0000146204600F0F8F8204610BDF8B50023A8
:1008C0002DE04FF0080C05E0DFF8B0C16045F8D12D
:1008D0004FF0070C0CFA06FC4CEA070C45F824C054
:1008E000674CA668D5432E404F68FF0200D51643DB
:1008F000A660E6682E404F68BF0200D51643E6604A
:1009000066682E404F68BF0300D5164366602668B0
:100910002E404D68ED0300D5164326605B1C0F2B5F
:1009200000F2A48001279F400A683A40BA42F5D1FC
:100930005C000325A540ED434E6806F0030CBCF1B6
:10094000010F03D006F00306022E10D186682E4058
:10095000D1F80CC00CFA04FC4CEA06068660466826
:10096000BE434F68C7F300179F403E4346600E7971
:1009700006F00306032E05D0C6682E408F68A740F8
:100980003E43C6600E7906F00306022E15D11E46C0
:10099000F60800EB86073E6A4FEA830C0CF01C0C4D
:1009A0004FF00F0E0EFA0CFE26EA0E06D1F810E0FC
:1009B0000EFA0CFC4CEA06063E6206682E400D79E3
:1009C00005F0030505FA04F4264306604C6814F4A8
:1009D000403FA3D0002400942A4C256845F480456C
:1009E0002560246804F480440094009C1C46A408FC
:1009F000254D55F824709E0006F00C064FF00F0CA4
:100A00000CFA06FC27EA0C07DFF880C0604502D12B
:100A10004FF0000C5EE7DFF878C0604502D14FF080
:100A2000010C57E7DFF86CC0604502D14FF0020CB3
:100A300050E7DFF864C0604502D14FF0030C49E78E
:100A4000DFF858C0604502D14FF0040C42E7DFF8F0
:100A500050C0604502D14FF0050C3BE7DFF844C0C1
:100A600060457FF431AF4FF0060C33E7F1BD002A4B
:100A700001D081617047090481617047001C024008
:100A8000003C014044380240083801400000024068
:100A90000004024000080240000C02400010024026
:100AA000001402400018024062F30F2262F31F425A
:100AB000401810F0030308D0C91A1FD3DB0748BF42
:100AC00000F8012D28BF20F8022D130030B4144681
:100AD0001546103928BF20E93C00FAD8490728BF3D
:100AE00020E90C0048BF40F8042D890028BF20F8F9
:100AF000022D48BF00F8012D30BC7047C91818BF3F
:100B000000F8012DCB0728BF00F8012D704730B445
:100B1000002513E050F8042BD30744BFA9F10103CB
:100B20009A18091F042942F8045BFAD213468C076D
:100B300044BF15809B1CC90748BF1D7050F8041B9B
:100B40000029E7D130BC704780B500F029FA00F0E9
:100B500047FA00F075FA00F0ABFA00F0B7FA00F0CF
:100B6000CAFA00F0E5FA00F0E6FA00F0A3FC00F0A3
:100B70002AFD00F049FEBDE8014000F09CBE704730
:100B800080B500F0A9FE00F00DF800F0B5F800F017
:100B90009BF800F074F800F058F8FFF7D5FF00F06C
:100BA000FCF9FEE780B592B03022002106A8FFF7DD
:100BB0007BFE1422002101A8FFF776FE00200090A2
:100BC000D848016841F080510160006800F0805011
:100BD0000090009800200090D348016841F48041C3
:100BE0000160006800F480400090009801200690A9
:100BF0004FF48030079002200C904FF480000D904D
:100C000004200E90A8200F90022010900720119031
:100C100006A800F07BFE002801D000F09FF90F200D
:100C2000019002200290002003904FF4A050049005
:100C30004FF480500590052101A801F001F800282B
:100C400001D000F08BF913B000BD80B5B748B849AA
:100C500001601521416000218160C1604FF4402195
:100C600001614FF480114161002181618183FFF7AF
:100C70008BFA002802D0BDE801406FE101BD1CB530
:100C8000082200216846FFF70FFEAA4CAA48206000
:100C900000206060A0604AF20F40E0600020A06188
:100CA000204601F0AFF8002801D000F057F91020DD
:100CB0000090002001906946204601F021FA0028AA
:100CC00001D000F04BF913BD80B59C489C490160F0
:100CD0004FF49641416000218160C16001610C21A7
:100CE000416100218161C16101F052FA002802D006
:100CF000BDE8014032E101BD2DE9F84386B0142280
:100D000000216846FFF7D0FD002005908D4801685E
:100D100041F010010160016801F010010591059991
:100D200000210591016841F004010160016801F0B2
:100D300004010591059900210591016841F08001A8
:100D40000160016801F0800105910599002105917C
:100D5000016841F001010160016801F001010591A4
:100D6000059900210591016841F0020101600168C7
:100D700001F002010591059900210591016841F0FA
:100D800008010160006800F00800059005986E4CAD
:100D9000002208212046FFF76AFE6C4D0122114611
:100DA0002846FFF764FE4FF21006694F00223146D5
:100DB0003846FFF75CFE08200090012001900020DB
:100DC0000290039069462046FFF778FD01200090CD
:100DD000019000200290039069462846FFF76EFDBF
:100DE000082000900220019000200290039005202E
:100DF000049069462846FFF761FD012000904FF4FA
:100E00008810019000200290DFF848816946404632
:100E1000FFF754FD10200090022001900020029066
:100E200003900620049069464046FFF747FDE02006
:100E30000090022001900020029003900520049071
:100E400069464046FFF73AFD0420009000200190DB
:100E50000290DFF8049169464846FFF72FFD4FF4F2
:100E600080600090022001900020029003900520F5
:100E7000049069464846FFF721FD00960120019045
:100E800000200290039069463846FFF717FD4FF4A3
:100E9000A4500090022001900020029003900620B0
:100EA000049069462846FFF709FD4FF40070009052
:100EB00000200190029069464046FFF7FFFC4FF486
:100EC000E0500090022001900020029003900A2040
:100ED000049069464046FFF7F1FC20200090002076
:100EE0000190029069463846FFF7E8FC4FF4107015
:100EF00000901220019000200290039004200490A2
:100F000069464846FFF7DAFC022000904FF4901043
:100F100001900020029069462046FFF7CFFC07B001
:100F2000BDE8F0834038024000700040E40000203B
:100F30000064004010000020001000405800002015
:100F400000440040303802400010024000080240D7
:100F5000000C02400000024000040240704730B420
:100F60000EE00268436802440830DC0744BFA9F180
:100F70000104E31852F8045B43F8045B091FF9D13C
:100F800050F8041B0029ECD130BC70470649884258
:100F900002D10648006800477047034800F054BF7C
:100FA00003480249086070471000002090010020AB
:100FB0007F0B0008104800680068400900F001003D
:100FC00070470D4800684068C0B270470A49096818
:100FD000486070476FF02000074909680860704753
:100FE00005486FF04001026811606FF02001006851
:100FF00001607047000000005800002000212648D2
:10100000FFF715BB2448FFF765BA80B50346234AAE
:1010100000212148FFF774FA401E8041C00F02BD35
:1010200010B51F4C2060226104F140030A4621469E
:101030001948FFF7EBF9401E8041C043C00F10BDB7
:1010400010B51748002141608160C16001754FF4FF
:10105000105181610021C1614FF47F410162002183
:10106000416281620D21C16200210163012141635E
:101070008163094C00F118012046FFF71EF9002892
:1010800001D0012010BD2046FFF78FF9401E80419E
:10109000C043C00F10BD0000E40000205801002034
:1010A000A000002002464FF400410448FFF7DFBCD7
:1010B00000224FF400410148FFF7D9BC000C024068
:1010C00002464FF480510448FFF7D1BC00224FF490
:1010D00080510148FFF7CBBC000C024010B5002442
:1010E00004E00C4951F820008047641C2046C0B23F
:1010F0000928F6DB10BD0020074A064B02E043F842
:101100002120401C0146C9B20929F8DB03480449E3
:1011100008607047340100207F0B0008DD100008D4
:10112000900100200120FFF7BDBF0020FFF7BABFEC
:101130000020FFF7B7BF0020FFF7C2BF80B500F067
:10114000A3F8002817D0DFF8A013887C00280AD164
:101150000020024602E00B181A75401C1028FADB2A
:101160001046C87401BD2420FFF730FF0FF20900BC
:10117000DFF87813886001BD80B500F085F800289D
:101180001AD00021DFF8602307E05018007D002806
:1011900002D0D07C401CD074491C1029F5DBD07CD7
:1011A000FFF714FFDFF848030021017041700FF2D0
:1011B0000D00DFF83813886001BD000070B500F045
:1011C00063F8002837D0DFF8205305F113042078A6
:1011D0000146112906DB0421A174DFF81813DFF89A
:1011E0000C239160002805D10320A074DFF80403CC
:1011F000BE498860BE4E05F114003178405CFFF7AF
:10120000E5FE307805F11401095C72788A18727075
:10121000242903D10FF22101B44A91602178491E9B
:10122000884205DB0FF24100B04988600020307031
:101230003078401C307070BD80B500F025F8002873
:1012400011D00020FFF7C2FEA848A9490A78A64B92
:10125000DB7C9A4205D300220A700FF20D018160F7
:1012600001BDA549816001BD80B500F00DF80028E1
:1012700009D09F484078FFF7A9FE00209A4988745A
:101280009C489A49886001BD9C480178491C0170BE
:10129000C9B2042901D20020704700210170012049
:1012A000704780B500F0F7F800280FD09448817897
:1012B000242906D1002141700FF215008B494860A6
:1012C00001BD8948012180F82510417001BD000051
:1012D00070B500F0C9F800282CD0834C04F1240527
:1012E000824E00F0CEF8012804D1012068706070B1
:1012F0008448706000F0CFF800281BD0804900209F
:1013000048708878002805D103226A700122627033
:101310007C4A72600246112A05DB04226A700122AF
:101320006270784A7260287000200870C8700FF2EE
:101330000900706070BD000038B500F095F8002815
:101340002FD000F09EF8012809D16748012100F153
:101350002402517041706B486449486031BD00F00F
:101360009AF800281DD06649002048708B780A78CA
:101370005D48841C15466355CC781C19CC70521CF2
:101380000A70242B04D10FF21D005849486031BD6A
:1013900090F82400D2B2824203D10FF27100534977
:1013A000486031BD10B500F05FF800282CD000F087
:1013B00068F8012809D14C48012100F1240251703C
:1013C000417050484949486010BD00F064F8002859
:1013D0001AD04B4A00205070434901F12403434C7A
:1013E0009078002806D005205870012048704548A4
:1013F000606010BD10781978884202D2424860605F
:1014000010BD0FF20900606010BD000010B500F0C3
:101410002BF8002827D000F034F8012808D13248F2
:10142000012180F82510417036483049486010BDD0
:1014300000F031F8002816D0314B002058702B49AD
:10144000304A29489C78DB789C4206D1002380F8FA
:101450002530012343704A6010BD062380F82530F3
:10146000012343704A6010BD24484178491C4170F3
:10147000C9B2002901D1002070470021417001202C
:1014800070471F484178491C4170C9B20829804102
:10149000C043C00F704780B5FFF78CFD002801D115
:1014A000002002BDFFF78DFD15498870FFF792FD02
:1014B000012002BD0C4800210180104900220A7061
:1014C00082744A70114680F825100849094A8A60DA
:1014D0000C4A4A6000210A4602E043181A75491C6A
:1014E0001029FADB704700000C01002034010020B5
:1014F0009E0100203D110008BD1100089C01002044
:1015000098010020A31200083913000810B53A4CC6
:10151000A07A002822D0E07A002804D10320607647
:101520000020A07210BD092804DB04206076002092
:10153000A07210BDFFF766FD00280FD0E27A04F11B
:101540000C016069FFF76CFD002804D00120607673
:101550000020A07210BD00206076A07210BD1CB5E6
:10156000254C607801282DD0FFF748FD002829D0B0
:101570006846FFF74AFD012806D0002020760220A9
:1015800060760120607013BD1C4800692076207EC3
:10159000082801DD082020760020A21C04E069460E
:1015A000095C1154401CC0B2217E8842F7DB082838
:1015B00004DA00211154401CC0B2F8E70020607624
:1015C0000120607013BD0C484FF48071416100210F
:1015D0000180418101830A4603E043181A739A701F
:1015E000491C0829F9DB0649064A8A61064A4A610C
:1015F0000121017070470000740100205801002093
:10160000340100200D1500085F1500088149487855
:10161000012800D0704730B47F4A907A01287DD0ED
:1016200091F82500002877D188784D281CD1CB78F7
:10163000692B19D10B796C2B16D14B79692B13D1EE
:101640008B79652B10D1CB79752B0DD14FF4807030
:1016500050610020432402F10C050346DBB2072B46
:1016600053DCEC54401CF8E7502819D1CB78652B9B
:1016700016D10B79732B13D14B79652B10D18B7944
:10168000652B0DD14FF4807050610020422402F18F
:101690000C050346DBB2072B37DCEC54401CF8E7A3
:1016A000542813D1CB78722B10D10B79692B0DD123
:1016B0004FF4807050610020552402F10C05034660
:1016C000DBB2072B21DCEC54401CF8E7452823D182
:1016D000C878722820D1087972281DD148796528E8
:1016E0001AD18879752817D1C879722814D14FF486
:1016F000837050610020452402F10C0501E0EC5498
:10170000401C0346DBB2072BF9DD0820D072012014
:1017100090720020487001E00020487030BC704793
:101720003D494878012800D0704730B4394A907C50
:10173000012867D0487E002862D188784F282ED1B2
:10174000CB784F2B2BD10B794F2B28D14B794F2BAB
:1017500025D18B794F2B22D1CB794F2B1FD10B7AEF
:101760004F2B1CD14B7A4F2B19D10020044602F18C
:10177000140501E0EC54401C0346DBB2102BF9DBEE
:10178000522010756F205075752090756720D075A8
:1017900065201076012090742046487032E04D2874
:1017A0002ED1C8784D282BD108794D2828D14879D9
:1017B0004D2825D188794D2822D1C8794D281FD1AF
:1017C000087A4D281CD1487A4D2819D100200446AA
:1017D00002F1140501E0EC54401C0346DBB2102B6F
:1017E000F9DB4D20107565205075742090756120CF
:1017F000D0756C201076012090742046487001E06E
:101800000020487030BC704704480549C161054953
:10181000016270470C010020740100203401002097
:101820000D1600082117000828480168491C0160AE
:10183000B1F5167F00D2704780B500210160FFF737
:1018400071FC0FF209002249086001BD1F480168C0
:10185000491C0160B1F5C87F00D2704780B50021F6
:101860000160FFF762FC0FF209001949086001BD31
:1018700016480168491C0160B1F57A7F00D27047B3
:1018800080B500210160FFF74DFC0FF209001049FF
:10189000086001BD0D480168491C0160B1F5FA6F8F
:1018A00000D2704780B500210160FFF73EFC094877
:1018B0000749086001BD80B5002004490860FFF7B2
:1018C00034FC04480249086001BD00009401002076
:1018D000340100202918000880B50B48016841F444
:1018E00000710160016841F480610160016841F4A8
:1018F000807101600320FEF7B8FF002000F0E4FCD7
:10190000FEF7A8FE002002BD003C02402DE9FC418C
:10191000040000F08781DFF818532078C00713D542
:10192000A86800F00C00042807D0A86800F00C009C
:1019300008283DD1686840023AD52868800303D55D
:101940006068002800F06E812078800719D5A868AB
:1019500010F00C0F07D0A86800F00C0008285ED12A
:10196000686840025BD42868800703D5E0680128D6
:1019700040F05881286820F0F800216940EAC10051
:1019800028602078000740F18080AA49606900281B
:101990006DD001200860FEF709FF0646686F8007DA
:1019A00073D4FEF703FF801B0228F7D903203CE124
:1019B0006068B0F5803F04D1286840F4803028602A
:1019C00012E0B0F5A02F286807D140F480202860ED
:1019D000286840F48030286006E020F480302860D9
:1019E000286820F480202860606800280BD0FEF76B
:1019F000DDFE064628688003A6D4FEF7D7FE801BCE
:101A00006528F7D3D2E7FEF7D1FE064628688003A3
:101A10009AD5FEF7CBFE801B6528F7D3C6E786492B
:101A2000E068002815D001200860FEF7BFFE0646DA
:101A30002868800705D4FEF7B9FE801B0228F7D975
:101A4000B4E7286820F0F800216940EAC100286066
:101A500097E700200860FEF7A9FE06462868800781
:101A60008FD5FEF7A3FE801B0228F7D99EE7002042
:101A70000860FEF79BFE0646686F800705D5FEF7F7
:101A800095FE801B0228F7D990E72078400763D5A0
:101A90000026286CC0000BD430460090286C40F023
:101AA00080502864286C00F0805000900098012637
:101AB000624F3868C00510D4386840F480703860D0
:101AC000FEF774FE80463868C00506D4FEF76EFE49
:101AD000A0EB08000228F6D968E7A068012804D125
:101AE000286F40F00100286711E00528286F07D112
:101AF00040F004002867286F40F00100286706E0E6
:101B0000400840002867286F20F004002867A0687C
:101B100000280DD0FEF74AFE0746286F800715D42F
:101B2000FEF744FEC01B41F289318842F5D33DE700
:101B3000FEF73CFE0746286F800707D5FEF736FE06
:101B4000C01B41F289318842F5D32FE7012E03D122
:101B5000286C20F080502864A069002864D0A9680F
:101B600001F00C0108293BD0334E02282AD1002075
:101B70003066FEF71BFE07462868800105D5FEF794
:101B800015FEC01B0228F7D910E7E069216A084357
:101B9000616A40EA8110A16A4908491E40EA014091
:101BA000E16A40EA0160686001203066FEF7FEFDF0
:101BB00004462868800137D4FEF7F8FD001B022890
:101BC000F7D9F3E600203066FEF7F0FD04462868FA
:101BD000800129D5FEF7EAFD001B0228F7D9E5E6CA
:101BE00001281FD0686800F48001E269914219D190
:101BF00000F03F01226A914214D147F6C0710140C2
:101C0000626AB1EB821F0DD100F44031A26A520822
:101C1000521EB1EB024F05D100F07060E16AB0EBEB
:101C2000016F01D0012000E00020BDE8F68100BF77
:101C300000380240800E47420000474200700040DA
:101C40002DE9F04104460F46002C5BD04D4E306824
:101C500000F00700B84205D23770306800F0070086
:101C6000B8424FD12068484D810712D5400703D5AF
:101C7000A86840F4E050A8602078000703D5A86861
:101C800040F46040A860A96821F0F001A068014319
:101C9000A9602078C0072AD56068012803D1296887
:101CA00089030BD42EE0022801D0032803D1296830
:101CB000890103D426E02968890723D5A968890802
:101CC00050EA8100A860FEF771FD8046A86800F028
:101CD0000C006168B0EB810F09D0FEF767FDA0EB47
:101CE000080041F289318842F0D303202EE03068A9
:101CF00000F00700874207D23770306800F0070015
:101D0000B84201D0012021E02078400705D5A9681C
:101D100021F4E051E0680143A9602078000706D56E
:101D2000A86820F46040216940EAC100A86000F082
:101D300037F81649AA68C2F30312895CC8401449EF
:101D400008601448006800F0BFFA0020BDE8F08188
:101D50000F480068704780B5FFF7FAFF0F490E4A39
:101D60001268C2F38222895CC84002BD80B5FFF7C9
:101D7000EFFF0A49084A1268C2F34232895CC84040
:101D800002BD0000003C024000380240A0250008CF
:101D90000C0000200800002008380240B42600088B
:101DA00010B5154C606800F00C00042802D008281B
:101DB00002D01EE0114810BD226802F03F0200234D
:101DC000206840022068C0F3881005D50B49A1FBAC
:101DD000000100F09DFA04E00949A1FB000100F0B8
:101DE00097FA2168C1F30141491C4900B0FBF1F0A9
:101DF00010BD034810BD00BF0438024000127A0035
:101E00000024F40038B5040001D1012032BD04F1F2
:101E10003C056878002804D1002028702046FEF791
:101E200068FC02206870211D206800F0F6F801208F
:101E3000A872A870E87028716871A871E87128729A
:101E400068726870002032BD90F83D10012901D001
:101E500001207047022180F83D100168CA6842F0F5
:101E60000102CA600068DFF85C1088421AD0B0F145
:101E7000804F17D0DFF85010884213D0DFF84C1095
:101E800088420FD0DFF8481088420BD0DFF84410AA
:101E9000884207D0DFF84010884203D0DFF83C10BA
:101EA000884209D1816801F00701062908D001683C
:101EB00041F00101016003E0016841F001010160AE
:101EC000002070470000014000040040000800406E
:101ED000000C004000040140004001400018004098
:101EE00070B504462068C5680669B10716D5A9070C
:101EF00014D56FF00201016101202077206880690C
:101F000010F0030F204602D000F01AFB04E000F0AE
:101F100018FB204600F016FB00202077700717D52D
:101F2000680715D56FF0040021680861022020774A
:101F30002068806910F4407F204602D000F000FB4A
:101F400004E000F0FEFA204600F0FCFA00202077C2
:101F5000300717D5280715D56FF0080021680861EC
:101F6000042020772068C06910F0030F204602D0BB
:101F700000F0E6FA04E000F0E4FA204600F0E2FAAD
:101F800000202077F00617D5E80615D56FF0100071
:101F900021680861082020772068C06910F4407F1C
:101FA000204602D000F0CCFA04E000F0CAFA204645
:101FB00000F0C8FA0020207706F0010005F00101CA
:101FC000084206D06FF00100216808612046FEF744
:101FD000DDFF300608D5280606D56FF080002168A1
:101FE0000861204600F0AFFA700608D5680606D5ED
:101FF0006FF0400021680861204600F0A5FAB006A5
:102000000AD5A80608D56FF020002168086120468F
:10201000BDE8704000F099BA70BD10B40468DFF8F4
:10202000B430984212D0B0F1804F0FD0DFF8A82022
:1020300090420BD0DFF8A420904207D0DFF8A02018
:10204000904203D0DFF89C20904203D124F070042A
:102050004A681443984220D0B0F1804F1DD01E4AE8
:1020600090421AD01D4A904217D01D4A904214D077
:102070001C4A904211D01C4A90420ED01B4A9042FA
:102080000BD01B4A904208D01A4A904205D01A4AF7
:10209000904202D0194A904203D124F44074CA6895
:1020A000144324F080044A6914438A68C2620A68AF
:1020B0008262984202D00B4A904201D109690163C1
:1020C000016841F00401016001214161046010BC1C
:1020D000704700000000014000040040000800407C
:1020E000000C004000040140004001400044014059
:1020F0000048014000180040001C00400020004043
:1021000070B400F13C031A78012A01D102202DE0BD
:1021100001221A7002225A7005686E68AC6826F0B7
:1021200070060A6816436E6002681248824214D034
:10213000B2F1804F11D0104882420ED00F48824237
:102140000BD00F48824208D00E48824205D00E487C
:10215000824202D00D48824204D124F080044868B3
:1021600004439460012058700020187070BC7047C0
:102170000000000000000140000400400008004092
:10218000000C0040000401400040014000180040E5
:1021900038B5040001D1012032BD04F14005687852
:1021A000002804D1002028702046FEF7BEFA242023
:1021B00068702068C16821F40051C160204600F0B9
:1021C00017F82068016921F4904101612068416994
:1021D00021F02A0141612068C16841F40051C160C9
:1021E0000020686020206870A8700020606332BD05
:1021F00070B5044621680A6922F44052E06802433F
:102200000A612168CA682D480240A068024320691B
:10221000024360690243E0690243CA6021684A6977
:1022200022F44072A06902434A612068244988422E
:1022300002D02449884202D1FFF798FD01E0FFF760
:102240008AFD626800231921A1FB0001256864262C
:10225000E469B4F5004F18D143EAD273520000F09C
:1022600057F83146B0FBF1F106FB1106F6003236A5
:102270006420B6FBF0F0420002F4F87202EB0112A7
:1022800000F007008018A86070BD43EA92739200C6
:1022900000F03EF83146B0FBF1F106FB11063601C5
:1022A00032366420B6FBF0F000F0F00202EB0112CF
:1022B00000F00F008018A86070BD0000F369FFFFF8
:1022C000001001400014014038B504460E4D4FF493
:1022D0007A702978B0FBF1F00C490968B1FBF0F095
:1022E000FEF7D4FA002801D0012032BD102C08D20C
:1022F000002221464FF0FF30FEF7B8FAAC60002014
:1023000032BD012032BD00BF000000200C000020C3
:10231000BBBBE1B1B2F5803F80F07E80022A1ED9BE
:102320008C46B1FBF2F102FB11C31B0443EA1043DC
:10233000B3FBF2FC02FB1C3380B240EA0343B3FB65
:10234000F2F002FB103240EA0C4000237047022AF0
:1023500005D98446B0FBF2F002FB10C270474AB1C7
:1023600005D100F0010249085FEA30007047002201
:102370000023704700F0EAB80B00020000210020A3
:102380007047904271EB030CF6D3B3F5803F2FD228
:10239000F0B5B3FA83F7B1FA81F4A7F10F0E3D1B44
:1023A0005340CEF1200602FA0EF2F3415340B5F14C
:1023B0000F0746D80F3C2C444140C4F12006A040F2
:1023C000F1414140B1FBF3F603FB1611A2FB0645B8
:1023D000001BA94102D2761E8018594180EA0102F1
:1023E00021FA0EF362FA0EF200215A403046F0BD97
:1023F00030B4B1FBF3FC03FB1C11A2FB0C45001B2A
:10240000A94103D2ACF1010C8018594130BC0246FD
:102410000B46604600217047B2F1807F65D3F0B56E
:10242000B2FA82F7B1FA81F4C7F10F063D1B22FA26
:1024300006F307F1110EF24120355A40B5F10F07AE
:10244000B8D94140C4F12006A040F1414140B1FB60
:10245000F3FC03FB1C11A2FB0C45001BA94103D29A
:10246000BCF1010C801859410F2F12D30F3FC90343
:1024700041EA5041B1FBF3F603FB1611A2FB0645FE
:10248000D4EBC030A94102D2761E8018594146EAE9
:10249000CC3C07B34140C7F12006B840F141414070
:1024A000B1FBF3F603FB1611A2FB0645001BA94185
:1024B00002D2761E8018594180EA010221FA0EF3F9
:1024C000C7F1200462FA0EF20CFA07F05A402CFA17
:1024D00004F13043F0BD80EA010221FA0EF300213D
:1024E00062FA0EF260465A40F0BD8C46B1FBF2F142
:1024F00002FB11C31B0243EA1063B3FBF2FC02FBB5
:102500001C331B024CEA002043EA1063B3FBF2FCCD
:1025100002FB1C331B024CEA002043EA1063B3FBAE
:10252000F2FC02FB1C331B024CEA002043EA10635E
:10253000B3FBF2FC02FB1C324CEA00200023704784
:10254000704770477047704770477047704700008A
:102550000E48016841F4700101600D49086840F0BF
:1025600001000860002088600A680A4802400A608A
:1025700009484860086820F4802008600020C8608E
:102580004FF00060054908607047000088ED00E0EA
:1025900000380240FFFFF6FE1030002408ED00E096
:1025A0000000000000000000010203040607080903
:1025B00010B5074979441831064C7C44163404E0C0
:1025C0000A68081D114488470146A142F8D110BD90
:1025D0002C0000004C0000004EF68851CEF20001A5
:1025E000086840F470000860BFF34F8FBFF36F8F2F
:1025F0004FF00070E1EE100A7047000013E5FFFF96
:1026000090010000100000200000000053E9FFFFCF
:102610001000000084000000000000200000000006
:1026200000F00DF8002801D0FFF7C2FFAFF30080E3
:102630000020AFF30080FEF7A3FA00F002F80120BB
:10264000704700F001B800000746384600F002F875
:10265000FBE7000080B5AFF30080024A11001820AC
:10266000ABBEFBE726000200014880470148004757
:1026700051250008A92600080248416802788918F7
:102680004160704700000020FFF7F6BF0148FFF7E8
:1026900027BC000010000020010000000000000026
:1026A000100000000024F400AFF30080FFF794FF57
:1026B000FFF7B6FF0000000001020304FFF7FEBFB2
:1026C000FFF7FEBFFFF7FEBFFFF7FEBFFFF7FEBF3E
:1026D000FFF7FEBFFFF7FEBFFFF7FEBFFFF7FEBF2E
:1026E000FFF7FEBFFFF7FEBFFFF7FEBFFFF7FEBF1E
:1026F000FFF7FEBFFFF7FEBFFFF7FEBFFFF7FEBF0E
:10270000FFF7FEBFFFF7FEBFFFF7FEBFFFF7FEBFFD
:10271000FFF7FEBFFFF7FEBFFFF7FEBFFFF7FEBFED
:10272000FFF7FEBFFFF7FEBFFFF7FEBFFFF7FEBFDD
:10273000FFF7FEBFFFF7FEBFFFF7FEBFFFF7FEBFCD
:10274000FFF7FEBFFFF7FEBFFFF7FEBFFFF7FEBFBD
:10275000FFF7FEBFFFF7FEBFFFF7FEBFFFF7FEBFAD
:10276000FFF7FEBFFFF7FEBFFFF7FEBFFFF7FEBF9D
:10277000FFF7FEBFFFF7FEBFFFF7FEBFFFF7FEBF8D
:10278000FFF7FEBFFFF7FEBFFFF7FEBFFFF7FEBF7D
:10279000FFF7FEBFFFF7FEBFFFF7FEBFFFF7FEBF6D
:1027A000FFF7FEBFFFF7FEBFFFF7FEBFFFF7FEBF5D
:1027B000FFF7FEBFFFF7FEBFFFF7FEBFFFF7FEBF4D
:1027C000FFF7FEBFFFF7FEBFFFF7FEBFFFF7FEBF3D
:1027D000FFF7FEBFFFF7FEBFFFF7FEBFFFF7FEBF2D
:1027E000FFF7FEBFFFF7FEBFFFF7FEBFFFF7FEBF1D
:1027F000FFF7FEBFFFF7FEBFFFF7FEBFFFF7FEBF0D
:10280000FFF7FEBFFFF7FEBFFFF7FEBFFFF7FEBFFC
:0C281000FFF7FEBFFFF7FEBFFFF7FEBFA3
:04000005080026A920
:00000001FF
